:020000040800F2
:10000000C81D0020D5000008C55A00088543000817
:1000100000000000000000000000000000000000E0
:1000200000000000000000000000000071690008EE
:1000300000000000000000001D5C0008E1790008DD
:10004000E7000008E700000809640008E70000086E
:10005000E7000008A9350008E7000008BD350008E2
:10006000E7000008E7000008E7000008E7000008D4
:10007000E7000008E7000008E7000008E7000008C4
:100080009D7C0008E700000800000000E700000871
:10009000E7000008E7000008E7000008E7000008A4
:1000A000E7000008E7000008E7000008DD8100081D
:1000B0007D84000800000000E70000080000000048
:1000C0000348854600F0FEF90048004715C10008C6
:1000D000C81D00200448804704480047FEE7FEE7AB
:1000E000FEE7FEE7FEE7FEE7217C0008C10000080E
:1000F00030B50B46014600202022012409E00D46C0
:10010000D5409D4205D31D469540491B2546954047
:1001100040191546521E002DF1DC30BD70B500248B
:100120002546002801DA01244042002901DA012590
:100130004942FFF7DDFFAC4200D04042002C00D026
:10014000494270BDF0B51FB40646002082B0054696
:100150004024019100901BE0019922460F46304651
:1001600000F05DF9049A059B801A994110D310465E
:100170001946224600F043F9361A8F41019722466C
:1001800001200021009F00F03AF938184D410090FD
:100190002046641E0028DFDC019B00982946324679
:1001A00007B0F0BD03460B439B0703D009E008C925
:1001B000121F08C0042AFAD203E00B78491C03700E
:1001C000401C521EF9D27047D2B201E00270401CAE
:1001D000491EFBD270470022F6E710B513460A46C7
:1001E00004461946FFF7F0FF204610BD421E521C80
:1001F0001378002BFBD10B781370491C521C002B79
:10020000F9D1704730B505462A460B4610781C7860
:10021000521C5B1C002801D0A042F7D0002C03D058
:10022000002802D06D1CEFE7284630BD10B504460B
:1002300005E00B780370401C002B00D0491C521EB7
:10024000F7D2204610BD421C0178401C0029FBD18A
:10025000801A704710B5044600E0401C0378002B5C
:10026000FBD100E0401C521E04D30B78491C0370E4
:10027000002BF7D100210170204610BD03460A78FB
:100280000270491C401C002AF9D11846704730B54D
:1002900005460020034600E05B1C934205D2EC5C5F
:1002A000C85C201A01D1002CF6D130BD001D0321FD
:1002B000401E037812021A43491EF9D510467047B2
:1002C000034603220870491C000A521EFAD518463C
:1002D0007047024670B54A40D30FDB0740002DD06F
:1002E0004A002AD0010E140E091900021202400A17
:1002F000520A8418E50104465443000A120A2E04E7
:100300005043A4194219200CC543AA18120C012508
:100310007F39521CAD0352191204240400D0521C20
:10032000104301D44000491EC2B20C06C009201877
:10033000401C4008802A02D003E0002070BD400825
:100340004000002900DA0020184370BD70B5024655
:100350004A40D50F40004A00ED07400852080028E7
:1003600014D0002A12D0C40DD30D41020120C005C3
:100370005202490A520AE41A091812187D349142AD
:1003800001D3641C00E04900002C01DA002070BD9C
:100390000023914201D3891A0343400849000028F1
:1003A000F7D100290AD0914202D10121C90705E005
:1003B000914201D2012101E00121C943E005C018A9
:1003C000401900F03DF870BD10B50022962311468B
:1003D00000F03EF810BD410040020122400AD20563
:1003E000090E80187F2901DA00207047962903DC66
:1003F0009622511AC840704796398840704710B508
:10040000202A04DB0146203A9140002010BD914093
:1004100020239C1A0346E3401943904010BD10B5B9
:10042000202A04DB0846203AD040002110BD0B46AC
:10043000D340D0402024A21A91400843194610BD51
:10044000002904DA401C490001D1400840007047EF
:1004500070B40024050C05D11024000402D1002939
:1004600022D01124050E01D108340002050F01D15C
:10047000241D0001850F01D1A41C8000002801DB90
:10048000641C4000002908D020252E1B0D46F54095
:10049000A14000D00121294308431B1B0106DB1D9D
:1004A000000A002B02DA002070BC7047DB05181828
:1004B00080180029F8DA401C4900F5D170BC4008CA
:1004C00040007047064C0125064E05E02046E368D3
:1004D00007C82B4398471034B442F7D3FFF7F4FD15
:1004E00044E0000864E0000830B58C180278401C35
:1004F00013071B0F01D10378401C120906D10278A3
:10050000401C03E00578401C0D70491C5B1EF9D1AE
:1005100001E00B70491C521EFBD1A142E6D3002022
:1005200030BD000000B589B00121480405F0C0FBD2
:100530000121480205F0ECFB2020019003216846D0
:1005400001720021C17201A90920C00603F050FA0E
:10055000194800F05BF800200390012168460174FF
:1005600000200590C020069000200790089003A965
:10057000114800F093F8072220210F4800F02EF8D0
:100580000D4800F053F801210B4800F0A7F80121B5
:10059000094800F015F80121074800F02BF800BFCA
:1005A0000649054800F063F80028F9D0024800F039
:1005B0008BF809B000BD00000024014001000001DB
:1005C000002905D0C2680123DB031A43C26004E09E
:1005D000C2680123DB039A43C260704710B50B4623
:1005E0000021846A1C43846200BF0C4614432146E8
:1005F000416110BD002904D0826801231A43826042
:1006000003E0826802231A438260704710B50446F3
:100610000548844207D10121401505F089FB0021DE
:10062000601505F085FB10BD0024014030B5014682
:100630000020002200238C680125ED072C438C60EC
:1006400000BF8C68E30FDB07521C0F242403A24277
:1006500001D0002BF5D18C68E40FE40701D1086CC0
:1006600000E0002030BD0146086C80B2704730B514
:1006700002460020002301242406214205D094686C
:1006800001252D06AC43234600E013681C460C42AE
:1006900001D0012000E0002030BD000010B5002294
:1006A000C268084B1A400C7964030B6823438C68BA
:1006B0002343CC6823430C6923434C6923431A43E7
:1006C000C26010BD03D2FFFF816804221143816024
:1006D000704781681022114381607047002905D05E
:1006E000C26801239B031A43C26004E0C26801236D
:1006F0009B039A43C2607047FEB500270025042083
:100700000290012001901C4C03F0D8F8342003F033
:100710003DF81A4803F040F8042801D0FF20FEBD40
:10072000E827164D09E002CC284603F091F804288A
:1007300001D12D1D01E0FF20F1E71048E83085428E
:10074000F1D303F07BF80C4C0C4E002000900CE031
:1007500020683168884201D0FF20E0E768460078D1
:10076000001DC1B20091241D361D68460078E8289E
:10077000EED30020D3E70000D003002000FC0008E7
:1007800038B500200090082216A119480AF0A8FFE9
:1007900008F0C4F917A11848FFF734FD0446641C9B
:1007A000002519E02078302810DB207839280DDC6E
:1007B000684600780A214843C1B200912178303957
:1007C000684600780818C1B2009102E068460078D7
:1007D00038BD641C681CC5B2032DE3DB6846007895
:1007E000F6E7000041542B4342430D0A000000008D
:1007F000280B00202C000000B804002070B5024631
:100800000C465578022603E0905D4540701CC6B248
:10081000601FB042F8DC2B071B0F2806010F0A29C6
:1008200003DA08463030C1B202E008463730C1B2C0
:100830000A2B03DA18463030C3B202E018463730CC
:10084000C3B2201F105C884205D1E01E105C9842A4
:1008500001D1012070BD0020FCE7000010B5082484
:1008600019E0601EC4B204220DA10F480AF038FF3F
:1008700008F054F9002807D106220CA10A480AF012
:100880002FFF08F04BF908E0002C00D105E0FF2015
:10089000F5300BF005F8002CE3D100BF204610BD69
:1008A00041540D0A00000000280B0020415445303F
:1008B0000D0A00000020034908700349087003492D
:1008C00008707047E0000020E30000203D01002098
:1008D00010B5012149020348FFF77DFC00200249C1
:1008E000088010BDB80400205601002070B534A166
:1008F0003448FFF787FC0446E41C062232492046B0
:10090000FFF7C5FC002802D006F02AFB70BDE41DED
:1009100020783F281AD102222CA1601CFFF7B7FCD7
:10092000002802D006F008FBF0E72748A038007A3C
:10093000002805D00A2226A1284806F08DFA3DE0BD
:100940000B2227A1254806F087FA37E027A11D488A
:10095000FFF758FC002813D002221CA1A01CFFF7AF
:1009600096FC002802D006F0E7FACFE701201649EE
:10097000A039087201250A2215A1184806F06CFA60
:100980001BA11048FFF73EFC002813D002220FA144
:10099000E01CFFF77CFC002802D006F0CDFAB5E79A
:1009A00000200949A039087200250B220CA10B4830
:1009B00006F052FA06F0C8FF0DF01EF800BFA5E7DA
:1009C00061636300B8040020700400200D0A000079
:1009D000414343206F6E206F6B210000B003002065
:1009E000414343206F6666206F6B21006F6E0000ED
:1009F0006F66660030B5C9B0FC210AA8FFF7EBFBB3
:100A00000AA80CF08DFD202102A8FFF7E4FB0922C3
:100A100027A102A8FFF71EFC2848FFF714FCC4B268
:100A20001D2C01DB49B030BD2246244904A8013009
:100A3000FFF7FCFB222102AA2046093011540D21A8
:100A4000401C11540A21401C11540AF011FF02A845
:100A5000FFF7F9FB05B22A4602A919480AF040FE41
:100A600008F05CF80AA8FFF7EEFBA02804D95A2189
:100A700031A80330FFF7AFFB1A200190012201A932
:100A80000AA8FFF7E7FB0AA8FFF7DDFB05B22A4635
:100A90000AA90B480AF024FEFF20F53008F090F870
:100AA00001200AF0FDFE00200649087000BFB9E7EA
:100AB00041542B434D47533D22000000B00300201A
:100AC000280B0020EC000020F0B5B3B0B42106A83C
:100AD000FFF781FB052280A106A8FFF7BBFB1222CE
:100AE0007F4906A8FFF7B6FB02227EA106A8FFF702
:100AF000B1FB062203A97C480BF092FA0B2203A952
:100B0000013106A8FFF7A6FB032278A106A8FFF78C
:100B1000A1FB774800783030C1B20291012202A9CE
:100B200006A8FFF797FB072272A106A8FFF792FB22
:100B300003F0E4FA3030C1B20291012202A906A802
:100B4000FFF788FB04226DA106A8FFF783FB0822AC
:100B50006CA16F480AF0C4FD07F0E0FF6DA16F487B
:100B6000FFF750FB0446A41D6DA12046FFF74AFB8A
:100B700007463A1B214606A8FFF76CFB042269A131
:100B800006A8FFF767FB092268A161480AF0A8FDE3
:100B900007F0C4FF03F0B8FD67A16048FFF732FB20
:100BA0000446641C0422214606A8FFF753FB0122D9
:100BB00062A106A8FFF74EFB0422E11D06A8FFF77D
:100BC00049FB00205E490870032003F07DFA5D4870
:100BD00000785A2845D101205949087003225AA1AA
:100BE00006A8FFF737FB0A22584906A8FFF732FB91
:100BF000012256490B3106A8FFF72CFB032254A112
:100C000006A8FFF727FB092250490B3906A8FFF772
:100C100021FB01224D49491E06A8FFF71BFB0322B9
:100C20004CA106A8FFF716FB484D0C354AA1681CDD
:100C3000FFF7E8FA0746791B284609F0F7FA86B26B
:100C40000A213046FFF76AFA86B2314603A80BF054
:100C500033F9C1B202916846027A03A906A8FFF7E8
:100C6000F9FA01203649087003223CA106A8FFF7D3
:100C7000F1FA3B480078002802D03120029001E0D0
:100C800030200290012202A906A8FFF7E3FA03220E
:100C900034A106A8FFF7DEFA1348583880793030BF
:100CA000C0B20290012202A906A8FFF7D3FA0822D7
:100CB0002DA106A8FFF7CEFA06A8FFF7C4FAC0B226
:100CC000024606A901902B4806F0C6F82A480AF009
:100CD000E7FD33B0F0BD00003C4648542A00000058
:100CE000ECDF00082A4D0000280400202A475000AD
:100CF000E00000202A43475245473A002A43535117
:100D00000000000041542B4353510D0A0000000025
:100D1000280B00202B4353513A200000B804002038
:100D20002C0000002A4C41430000000041542B439A
:100D30005245473F0D000000220000002C2000001B
:100D400022010020DA0000202A4A44008B03002000
:100D50002A5744002A5344002E0000002A44480029
:100D6000F70000202A594C002A4552303030303EDE
:100D700000000000B0030020B80B000070B531483F
:100D8000FFF761FAC5B21D2D00DB70BD2EA1304802
:100D9000FFF738FA0446A41D02222EA1E01DFFF73A
:100DA00076FA002802D1A0793F2802D006F0C4F8D4
:100DB000EBE7062228492046FFF769FA002802D00F
:100DC00006F0CEF8E1E7092224A127480AF088FCC2
:100DD00007F0A4FE25A11E48FFF714FA0446641C80
:100DE0000C2223A120480AF07BFC2A4615491E4804
:100DF0000AF076FC022222A11B480AF071FCFF20B7
:100E00002D300AF04DFD07221EA117480AF068FC9C
:100E10000422214614480AF063FC01221BA1124857
:100E20000AF05EFC0422E11D0F480AF059FC012281
:100E300017A10D480AF054FCFF20F53007F0C0FE62
:100E400000BFA2E7B003002063656C6C696400001A
:100E5000B80400200D0A00007004002041542B4308
:100E60005245473F0D000000280B002022000000E3
:100E700041542B434D47533D222B38360000000090
:100E8000220D000043656C6C494420002C200000BA
:100E90001A000000F0B585B0A548FFF7D4F9C6B236
:100EA0001D2E01DB05B0F0BDA2A1A448FFF7AAF9F1
:100EB000054608350622A2492846FFF7E8F900282A
:100EC00002D006F04DF8EDE7FFF75AFC04460C227D
:100ED0009CA1A0480AF004FC324695499D480AF0BE
:100EE000FFFB02229CA19B480AF0FAFBFF202D3059
:100EF0000AF0D6FC092299A196480AF0F1FB0622D5
:100F000001A98F4848380BF08BF80B2201A9013159
:100F100090480AF0E5FB022293A18E480AF0E0FB1C
:100F2000032292A18B480AF0DBFB85488038FFF74B
:100F30008AF907B23A468249803986480AF0D0FBDE
:100F4000022289A183480AF0CBFB052288A18148AF
:100F50000AF0C6FB7A485038FFF775F907B23A46EF
:100F6000774950397B480AF0BBFB02227EA17948C1
:100F70000AF0B6FB0B2280A176480AF0B1FB70485C
:100F8000A038C07A632829DD6D49A039C87A642168
:100F9000FFF7C4F83030C1B2684601746849A0391F
:100FA000C87A0A21FFF7BAF86548A038C07A471A0C
:100FB00064213846FFF7B2F8303168464174604921
:100FC000A039C87A0A21FFF7A9F830316846817440
:100FD000032204A95F480AF083FB17E05849A039AF
:100FE000C87A0A21FFF79AF83030C1B26846017416
:100FF0005349A039C87A0A21FFF790F83031684682
:101000004174022204A953480AF06AFB03225DA13D
:1010100050480AF065FB09225BA14E480AF060FBCC
:101020004748A038C07A63282FDD4549A039C87ADF
:101030006421FFF773F83030C1B26846017440494B
:10104000A039C87A0A21FFF769F83D48A038C07A6C
:10105000471A64213846FFF761F800910A21009889
:10106000FFF75CF83030C1B2684641743449A039AA
:10107000C87A0A21FFF752F830316846817403229A
:1010800004A934480AF02CFB17E02D49A039C87A8E
:101090000A21FFF743F83030C1B26846017428498D
:1010A000A039C87A0A21FFF739F83031684641740F
:1010B000022204A927480AF013FB032235A1254880
:1010C0000AF00EFB082234A122480AF009FB092C81
:1010D00016DD0A212046FFF721F83030C1B26846FC
:1010E00001742E2141740A212046FFF717F8303190
:1010F00068468174022204A916480AF0F1FA06E053
:1011000068460474012204A912480AF0E9FA03228D
:1011100024A110480AF0E4FA012223A10D480AF0A4
:10112000DFFAFF20F53007F04BFD00BFBAE6000004
:10113000B0030020646576696E666F00B804002015
:101140007004002041542B434D47533D222B383629
:1011500000000000280B0020220D00004465766985
:10116000636549443A0000000D0A000049503A0006
:10117000506F72743A00000055706C6F616454696E
:101180006D653A00730D0A0057616B6554696D65B2
:101190003A0000006D0D0A00426174746572793A7C
:1011A00000000000560D0A001A00000070B58AB059
:1011B000002009907DA18048FFF724F804460834F8
:1011C00006227E492046FFF762F8002803D005F08A
:1011D000C7FE0AB070BDE41D202101A8FEF7FBFF89
:1011E000092277A101A8FFF721F820783F2863D1D1
:1011F000022276A1601CFFF74AF8002802D005F011
:101200009BFEE6E76D48A038C07A71490870084631
:10121000007863281FDD64216D480078FEF77EFFAB
:101220003030C1B268464173642169480078FEF7E6
:1012300075FF0E460A213046FEF770FF3030C1B20E
:10124000684681730A2162480078FEF767FF3031F3
:101250006846C17322E05E480078092814DD302119
:10126000684641730A215A480078FEF757FF30302C
:10127000C1B2684681730A2155480078FEF74EFFD7
:1012800030316846C17309E030216846417381738B
:101290004F4800783030C1B26846C1734DA101A8F3
:1012A000FEF7A4FF01A8FEF7CEFFC6B2324601A9A1
:1012B0004A4805F0D1FD76E0022244A1E01CFEF789
:1012C000E6FF002802D005F037FE82E700250DE09A
:1012D000605D302802DB605D392805DD102240A109
:1012E0003E4805F0B9FD74E7681CC5B2032DEFDB7D
:1012F0002078303864214143607830380A225043E6
:10130000081880B20990A07830280ADBA078392824
:1013100007DCA1786846808C0818303881B20991C2
:1013200006E00A216846808CFEF7F8FE81B209913A
:101330006846808C012803DB6846808CFF2805DD29
:101340000D222CA1254805F087FD42E76846808CD8
:101350001A49A039C87206F0F7FA0CF04DFB17488D
:10136000A038C17A6846808C81421CD1202101A816
:10137000FEF731FF092212A101A8FEF76BFF03223D
:10138000214603A80130FEF765FF042211A104A83D
:10139000FEF760FF01A8FEF756FFC6B2324601A96C
:1013A0000E4805F059FD00BF13E700006475726137
:1013B00074696F6E00000000B80400207004002003
:1013C0004475726174696F6E200000000D0A0000A0
:1013D00000000020206F6B2100000000B0030020FF
:1013E000506172616D65746572206572726F7221F1
:1013F0000000000057726F6E67206E756D62657237
:101400002100000070B533A13448FEF7FBFE04460E
:10141000E41D062232492046FEF739FF002802D09B
:1014200005F09EFD70BDE41D20783F281AD10222F0
:101430002CA1601CFEF72BFF002802D005F07CFDDC
:10144000F0E72748A0384079002805D00E2226A1D1
:10145000294805F001FD3BE00F2228A1264805F0B0
:10146000FBFC35E029A11D48FEF7CCFE002813D077
:1014700002221CA1A01CFEF70AFF002802D005F0E2
:101480005BFDCFE701201649A039487101250E22E6
:1014900015A1194805F0E0FC1DA11048FEF7B2FEA9
:1014A000002813D002220FA1E01CFEF7F0FE002856
:1014B00002D005F041FDB5E700200949A039487187
:1014C00000250F220DA10C4805F0C6FC06F03CFAE1
:1014D00000BFA7E76175746F736D7300B8040020D7
:1014E000700400200D0A00004175746F736D732045
:1014F0006F6E206F6B210000B00300204175746F88
:10150000736D73206F6666206F6B21006F6E000035
:101510006F66660030B589B0202101A8FEF75BFE3A
:101520002BA12D48FEF76EFE0446241D02222BA19E
:10153000E01DFEF7ACFE002802D1A0793F2803D0C1
:1015400005F0FAFC09B030BD062225492046FEF719
:101550009EFE002802D005F003FDF3E7072221A13B
:1015600022480AF0BDF807F0D9FA052220A101A807
:10157000FEF75CFE19A11848FEF744FE0446A41CC1
:101580000F22214602A80130FEF70CFE01A8FEF74B
:101590005AFEC5B22A4601A9174805F05DFC00288D
:1015A00013D001A8FEF74FFEC5B22A4601A9124882
:1015B00005F052FC002808D001A8FEF744FEC5B291
:1015C0002A4601A90C4805F047FC00BFBAE7000015
:1015D000696D656900000000B80400200D0A000074
:1015E0007004002041542B47534E0D00280B00205F
:1015F000696D656920000000B003002010B513A1DB
:101600001448FEF7FFFD0446241D022212A1A01D6E
:10161000FEF73DFE002802D005F08EFC10BD06222C
:101620000E492046FEF733FE002802D005F098FC54
:10163000F4E705F0C3F806F087F90CF0DDF90B22AA
:1016400007A10A4805F008FC00BFE7E7696E697466
:1016500000000000B80400200D0A00007004002003
:10166000496E697469616C204F4B2100B003002002
:10167000FEB50026002700240020009053A1554805
:10168000FEF7C0FD01900198801D0190062252498D
:101690000198FEF7FCFD002802D005F061FCFEBDBC
:1016A0004EA10198FEF7AEFD06464CA1701CFEF758
:1016B000A9FD0746B81B401EC4B2012C03DB1D2C3C
:1016C00001DA002F0AD146A1701CFEF79BFD0746E8
:1016D000B81B401EC4B20120009001E0022000901F
:1016E000012C01DB1D2C02DB05F026FCD7E7701C6A
:1016F0000290202138480830FEF76DFD21460298FF
:1017000007F027FC002803D065213348017211E05F
:10171000002507E00298425DA81C2F4908310A54B1
:10172000681CC5B2A542F5DB2B4808304470662121
:10173000083801720098022809D006F005F90CF06B
:101740005BF9102227A12C4805F086FBA7E724A10E
:10175000701CFEF757FD01900198C01B401EC4B2DB
:10176000012C01DB1D2C02DB05F0E6FB97E7781C62
:101770000290202118482830FEF72DFD21460298BE
:1017800007F0E7FB002804D06521134828300170DA
:1017900010E0002507E00298425DA91C0E482830A1
:1017A0004254681CC5B2A542F5DB0B482830447092
:1017B0006621017006F0C8F80CF01EF912220FA184
:1017C0000D4805F049FB00BF69E700006E65776EC4
:1017D000756D0000B8040020700400204000000077
:1017E0000D0A0000546865206E65776E756D2031B6
:1017F000206F6B2100000000B003002054686520BA
:101800006E65776E756D20314032206F6B21000060
:1018100010B511A11348FEF7F5FC04460834A07971
:101820003F2814D1022210A1E01DFEF730FD002850
:101830000DD106220D492046FEF729FD002802D0D1
:1018400005F08EFB10BD0A4805F0FCFA01E005F03A
:1018500073FB00BFF6E70000706F736974696F6E09
:1018600000000000B80400200D0A000070040020F1
:10187000B0030020F0B585B0FCA1FE48FEF7C2FC25
:1018800005466D1DFAA12846FEF7BCFC049004989D
:10189000401B192801DD05B0F0BDF74840785A28F3
:1018A0001CD0002405E00021F34820300155601CC5
:1018B000C4B2102CF7DB002408E0295DEE4820308C
:1018C00001550E2C00DB08E0601CC4B2E8A12846DC
:1018D000FEF798FC401BA042EFDC00BFE4A12846C5
:1018E000FEF790FC451C002408E0285D392802DC46
:1018F000285D302800DACEE7601CC4B2DCA128469F
:10190000FEF780FC401BA042EFDCDB4840785A2801
:101910001CD0002405E00021D74850300155601C40
:10192000C4B2052CF7DB002408E0295DD248503012
:101930000155042C00DB08E0601CC4B2CCA1284691
:10194000FEF760FC401BA042EFDC00BF002405E076
:101950000021C94830300155601CC4B2202CF7DB8F
:10196000C3A12846FEF74EFC451C002408E0295D73
:10197000C148303001551E2C00DB08E0601CC4B2A9
:10198000BBA12846FEF73EFC401BA042EFDC00BF97
:10199000002405E00021B84860300155601CC4B245
:1019A000202CF7DBB2A12846FEF72CFC451C0024B6
:1019B00008E0295DB048603001551E2C00DB08E0CE
:1019C000601CC4B2AAA12846FEF71CFC401BA04222
:1019D000EFDC00BF002405E00021A748803001555E
:1019E000601CC4B2202CF7DBA1A12846FEF70AFC3C
:1019F000451C0495002409E00498015D9E48803050
:101A000001551E2C00DB08E0601CC4B298A12846DA
:101A1000FEF7F8FB401BA042EEDC00BF94A1284675
:101A2000FEF7F0FB451C0495002408E0285D3928EA
:101A300002DC285D302800DA03E0601CC4B20B2C05
:101A4000F4DB00BF0B2C00DA25E70B2201A80130E4
:101A50000499FEF7A7FB30206946087100240BE0CB
:101A6000854858300119600001AA831802221846DF
:101A700008F004FB601CC4B2062CF1DB002408E073
:101A80007D4A5832115D01AA10190AF0B9FA601C9A
:101A9000C4B2062CF4DB062201A977485830FEF7C1
:101AA00081FB73A12846FEF7ADFB451C049500247D
:101AB00008E0285D392802DC285D302800DAEAE6F3
:101AC000601CC4B2032CF4DB287830386421414315
:101AD000687830380A225043081886B2A87830282F
:101AE00007DBA878392804DCA8788019303886B25A
:101AF00004E00A213046FEF711FB86B2012E03DB1B
:101B0000FF202D30864200DDC5E65B490C313046B2
:101B1000FEF7D6FB56A12846FEF774FB451C04953C
:101B2000002408E0285D392802DC285D302800DA2E
:101B3000B1E6601CC4B2032CF4DB28783038642191
:101B40004143687830380A225043081886B2A87892
:101B5000302807DBA878392804DCA87880193038C9
:101B600086B204E00A213046FEF7D8FA86B2012E8A
:101B700003DBFF202D30864200DD8CE63E4910312C
:101B80003046FEF79DFB3C481030FEF78FFB0A28DD
:101B900004D2394910310A20FEF792FB3648103042
:101BA000FEF784FBFF212D31884205D932491031DF
:101BB000FF202D30FEF784FB2DA12846FEF722FBE7
:101BC000451C2878302806DD2878342803DA287860
:101BD00030382949887026A12846FEF713FB451C9A
:101BE000002408E0285D392802DC285D302800DA6E
:101BF00051E6601CC4B2032CF4DB28783038642131
:101C000048430646687830380A2148438619A87840
:101C10003038801986B2FA2E04DC17491C31304660
:101C2000FEF74EFB12A12846FEF7ECFA451C287879
:101C3000302802D02878312803D1287830380E494E
:101C400008720BA12846FEF7DDFA451C28783028DB
:101C500002D02878312803D12878303806494871D5
:101C600003A12846FEF7CEFA451C07E05345544D24
:101C70002A000000B8040020D00300202878302873
:101C800002D10020724988712878312804D10120BE
:101C90006F4988710BF031FC6EA12846FEF7B2FA4D
:101CA000451C002408E0285D392802DC285D302826
:101CB00000DAF0E5601CC4B2032CF4DB287830387D
:101CC000642148430646687830380A21484386191B
:101CD000A8783038801986B25D49CE725DA1284659
:101CE000FEF790FA451C002408E0285D392802DC44
:101CF000285D302800DACEE5601CC4B2032CF4DB8A
:101D000028783038642148430646687830380A21FC
:101D100048438619A8783038801986B24C490E712C
:101D20004CA12846FEF76EFA451C4AA12846FEF74C
:101D300069FA04900498401BC0B2009000981D28D6
:101D400000DBA8E520214248A830FEF744FA2846E7
:101D5000009907F0FEF8002804D065213C48A03027
:101D6000017213E0002706E0EA5DB81C3849A8318B
:101D70000A54781CC7B200988742F5DB3449A83171
:101D80000098487066213248A030017231A128467F
:101D9000FEF738FA451C2FA12846FEF733FA0490C7
:101DA0000498401BC0B2009000981D2800DB72E52B
:101DB00020212748C830FEF70EFA2846009907F080
:101DC000C8F8002804D065212148C830017011E00E
:101DD000002706E0EA5DB91C1D48C8304254781C53
:101DE000C7B200988742F5DB1948C83000994170A6
:101DF0006621017017A12846FEF704FA451C2878D1
:101E000030380A214843064668783038801986B24F
:101E1000A878303848430446E87830380019C4B20E
:101E20004F2E0EDC002E0CDD002C0ADD262C08DCEB
:101E300007494E72084684720246917A507A0BF036
:101E400049FB05F081FD0BF0D7FD00BF23E5000045
:101E5000D00300202A00000010B547A14848FEF733
:101E6000D1F90446241D062246492046FEF70FFA02
:101E7000002802D005F074F810BDE0793F2826D183
:101E8000022241A120460830FEF701FA002802D0C4
:101E900005F052F8F0E73B48A0388078012802D0DE
:101EA00003280CD105E00F2238A13C4804F0D4FFF0
:101EB0000BE013223AA1394804F0CEFF05E00C22D2
:101EC0003CA1364804F0C8FF00BF00BFD4E73DA1E5
:101ED0002B48FEF797F9002814D002222AA12046A9
:101EE0001030FEF7D4F9002802D005F025F8C3E73A
:101EF00001202449A0398870122235A1274804F016
:101F0000ABFF23E037A11E48FEF77CF9002818D06C
:101F100002221DA120461030FEF7B9F9002802D098
:101F200005F00AF8A8E703201649A03988701222A4
:101F30002FA11A4804F090FF05F006FD0BF05CFDA0
:101F400004E010222FA1154804F086FF0D48A038A8
:101F5000807803280EDA0B48A0388078002809DD45
:101F600005F0F2FC0BF048FD2B4809F099FC5A20D3
:101F70002A49087000BF7FE76D6F646500000000AC
:101F8000B8040020700400200D0A00004D6F646545
:101F900020656C6F77706F7765722100B003002049
:101FA0004D6F64652020616C6C6F6E6C696E65208E
:101FB0006F6B21004D6F646520206572726F722116
:101FC00000000000656C6F77706F7765720000002D
:101FD0004D6F646520656C6F77706F776572206FE9
:101FE0006B210000616C6C6F6E6C696E65000000A7
:101FF0004D6F646520616C6C6F6E6C696E65206FEF
:102000006B210000506172616D65746572206572AC
:10201000726F72210000000088130000FE00002093
:10202000F0B5A5B0002024900190F5A1F548FEF789
:10203000E9F80546ED1C0622F3492846FEF727F984
:10204000002803D004F08CFF25B0F0BD842103A844
:10205000FEF7C1F8ED1D28783F2875D10024042231
:10206000EAA103A8FEF7F6F8E7488038FEF7EBF898
:102070000246E5498039009003A8FEF7EBF80122FB
:10208000E4A103A8FEF7E6F80622E3A103A8FEF701
:10209000E1F8DD485038FEF7D6F80246DA49503903
:1020A000009003A8FEF7D6F80122DAA103A8FEF7F4
:1020B000D1F80522DAA103A8FEF7CCF8D24870388F
:1020C000FEF7C1F80246D0497039009003A8FEF728
:1020D000C1F80122CFA103A8FEF7BCF80A22D2A1C1
:1020E00003A8FEF7B7F8C8484038FEF7ACF8024638
:1020F000C5494039009003A8FEF7ACF80122C5A1FC
:1021000003A8FEF7A7F80A22CAA103A8FEF7A2F8BF
:10211000BD482038FEF797F80246BB4920390090A9
:1021200003A8FEF797F80422C5A103A8FEF792F8CA
:1021300003A8FEF788F8C0B2024603A90090C2487F
:1021400004F08AFE5AE1FFE70422C0A103A8FEF7CB
:1021500081F82F46002410E0285D392802DC285D34
:10216000302808DA285D2E2805D01022B9A1B648FB
:1021700004F072FE68E7601CC4B2A6A12846FEF710
:1021800041F8401BA042E7DC9F48A03840785A281D
:102190001CD0002405E000219B4880380155601CBC
:1021A000C4B2102CF7DB002408E0295D9648803883
:1021B00001550E2C00DB08E0601CC4B295A1284636
:1021C000FEF720F8401BA042EFDC00BF91A128469B
:1021D000FEF718F8451C00240DE0285D392802DCC4
:1021E000285D302805DA10229AA1974804F034FEC1
:1021F0002AE7601CC4B287A12846FEF703F8401BFB
:10220000A042EADC8048A03840785A281CD000243C
:1022100005E000217C4850380155601CC4B2082CF0
:10222000F7DB002408E0295D774850380155062C7B
:1022300000DB08E0601CC4B276A12846FDF7E2FF8F
:10224000401BA042EFDC00BF002405E000216E48E7
:1022500070380155601CC4B2202CF7DB6DA12846F4
:10226000FDF7D0FF451C6BA12846FDF7CBFF401BB7
:10227000C0B22490002408E01F2C00DB08E0295D98
:10228000614870380155601CC4B224988442F3DB65
:1022900000BF002405E000215B4840380155601C68
:1022A000C4B2202CF7DB5BA12846FDF7ABFF451C31
:1022B000002408E0295D5448403801551E2C00DBFD
:1022C00008E0601CC4B253A12846FDF79BFF401BE9
:1022D000A042EFDC00BF002405E000214A4820387E
:1022E0000155601CC4B2202CF7DB4AA12846FDF73B
:1022F00089FF451C2E46002408E0315D4248203805
:1023000001551E2C00DB08E0601CC4B256A1284613
:10231000FDF778FF401BA042EFDC00BF28190290B8
:1023200005F012FB0BF068FB374980393548FDF7A3
:1023300069FF00285DD03448A03840785A2858D02A
:102340000298C21B394603A8FDF784FF04223CA172
:1023500003A8FDF77FFF03A8FDF775FFC0B2024693
:1023600003A90090384804F077FD7D20400109F072
:1023700097FA3E4800785A2800D165E601242EE0FD
:1023800007F0B4FF052800D15EE62046E10F0918EA
:1023900049104900611A03D035490978002901D153
:1023A00001F076FD01F0AAFE0190019801280ED0FF
:1023B0000198032801D101F06BFDFF20F53009F0F1
:1023C0006FFA00202B49087004F0AAFF00E008E033
:1023D00028480078012800D103E0601CC4B2082C12
:1023E000CEDB00BF072C09DD002001F045FC00BF5B
:1023F000FEE70D2220A1144804F02EFD00BF23E6C5
:102400006E657400B80400207004002069703A20E2
:102410000000000040000000706F72743A2000005D
:1024200061706E3A20000000757365726E616D65B3
:102430003A20000070617373776F72643A20000075
:10244000206F6B2100000000B00300207365742032
:1024500000000000506172616D65746572206572E4
:10246000726F7221000000000D000000E8000020E3
:10247000E2000020E0000020536574206E657420A7
:102480006661696C210000007CB506222B49684614
:10249000FDF788FE2AA12C48FDF7B4FE044602226F
:1024A0002AA120461330FDF7F2FE002802D004F0E6
:1024B00043FD7CBD0622A11D2048FDF7E8FE002853
:1024C0001CD126460D3600250DE0705D392802DC52
:1024D000705D302805DA17221DA1234804F0BCFCEA
:1024E000E7E7681CC5B2062DEFDB062221460D3159
:1024F0001248FDF79BFE05F027FA02E004F030FDDC
:10250000D7E70BF079FA062221460D310B48FDF78B
:10251000BEFE002805D1122214A1134804F09CFC31
:1025200009E0062269460548FDF73CFE142214A185
:102530000D4804F091FC00BFBBE7000070040020D0
:102540007365747073770000B80400200D0A0000F2
:10255000546865206E65772070617373776F72645D
:10256000206572726F722100B00300205061737396
:10257000776F7264207365747570206F6B21000033
:1025800050617373776F7264207365747570204641
:1025900061696C2100000000F0B589B06AA16C4847
:1025A000FDF730FE0446A41D06226A492046FDF7C9
:1025B0006EFE002803D004F0D3FC09B0F0BDE41D8A
:1025C000202101A8FDF707FE072263A101A8FDF75E
:1025D00041FE20783F2843D1022261A1601CFDF713
:1025E00056FE002802D004F0A7FCE6E759489438CC
:1025F000FDF75CFE85B264212846FDF78FFD6F1A5A
:1026000064213846FDF78AFD3030C1B26846C17298
:1026100064212846FDF782FD0F460A212846FDF772
:102620007DFD781A0A210090FDF778FD3030C1B2A7
:10263000684601730A212846FDF770FD303168466F
:102640004173042247A10E30FDF704FE01A8FDF7F7
:10265000FAFDC7B23A4601A9444804F0FDFB70E018
:1026600002223FA1E01CFDF712FE002802D004F078
:1026700063FCA2E700260DE0A05D392802DCA05D26
:10268000302805DA0D223AA1384804F0E5FB94E73A
:10269000701CC6B2032EEFDB207830386421414332
:1026A000607830380A225043081885B2A078302864
:1026B00007DBA078392804DCA0784019303885B2CF
:1026C00004E00A212846FDF729FD85B2022D03DB2F
:1026D000FF202D30854205DD0D2225A1234804F081
:1026E000BBFB6AE70322214601A8FDF7B3FD0422E4
:1026F0001CA101A8FDF7AEFD164994392846FDF747
:10270000DFFD05F021F90BF077F912489438FDF759
:10271000CDFDA84209D101A8FDF795FDC7B23A4603
:1027200001A9124804F098FB04E00A4994391E20DC
:10273000FDF7C6FD07489438FDF7B8FD401E104967
:10274000088000BF39E70000706572696F6400009F
:10275000B804002070040020706572696F64200066
:102760000D0A0000206F6B2100000000B003002064
:1027700057726F6E67206E756D6265722100000082
:102780000001002070B588B041A103C905910490F3
:1027900041A14248FDF736FD0546ED1C022240A14D
:1027A00028461930FDF773FD002803D004F0C4FB60
:1027B00008B070BD062229463A48FDF768FD00289A
:1027C00062D106222946133104A8FDF760FD0028D6
:1027D00054D106223349483906A8FDF7E3FCEE1D23
:1027E00000240DE0305D392802DC305D302805DA48
:1027F0000D222DA1304804F02FFBD9E7601CC4B294
:102800000B2CEFDB05DA0D2227A12B4804F024FB6B
:10281000CEE70B22314601A80130FDF7C3FC302082
:102820006946087100240AE01E4A483A11196200FC
:1028300001ABD018022207F021FC601CC4B2062CA8
:10284000F2DB002408E0174A483A115D01AA10198A
:1028500009F0D6FB601CC4B2062CF4DB062201A9E9
:1028600010484838FDF79EFC05F06EF80BF0C4F8F0
:102870000B2212A1104804F0EFFA07E0192212A16E
:102880000D4804F0E9FA01E004F06AFB00BF8FE7AD
:1028900031323336353400006D696400B8040020ED
:1028A0000D0A00007004002057726F6E67206E756D
:1028B0006D62657221000000B00300205365742032
:1028C0006D6964206F6B21005468652073757065B5
:1028D000722050617373776F7264206572726F72C9
:1028E0002100000070B59AB039A13B48FDF78AFC81
:1028F0000546ED1D022239A1A81DFDF7C8FC0028E0
:1029000003D004F019FB1AB070BD062234492846E2
:10291000FDF7BDFC002802D004F022FBF3E7002401
:1029200004E0002001A90855601CC4B2642CF8DB47
:102930002CA101A8FDF75AFC2948007A652809D086
:1029400027480A30FDF77FFCC1B22548083040789F
:10295000814204D025A101A8FDF748FC0AE02048E7
:1029600008304278811C01A8FDF774FC21A101A860
:10297000FDF73CFC20A101A8FDF738FC18482830E1
:102980000078652809D016482A30FDF75CFCC1B2F2
:10299000134828304078814204D014A101A8FDF7E3
:1029A00025FC0AE00E4828304278811C01A8FDF77A
:1029B00051FC10A101A8FDF719FC01A8FDF743FC8B
:1029C000C6B2324601A90E4804F046FA00BF9AE7A3
:1029D00073686F776E756D00B80400200D0A0000F3
:1029E000700400204E756D2E313A0000456D7074F4
:1029F000793B00003B0000004E756D2E323A00001E
:102A0000B003002070B58AB0002009906BA16E4819
:102A1000FDF7F8FB0446093406226C492046FDF711
:102A200036FC002803D004F09BFA0AB070BDE41D08
:102A300020783F2844D1022265A1601CFDF727FCC5
:102A4000002802D004F078FAEFE7202101A8FDF772
:102A5000C2FB0A225FA101A8FDF7E8FB5B48A03892
:102A600000795F49087064215D480078FDF756FBE6
:102A70003030C1B268468173642159480078FDF74F
:102A80004DFB0E460A213046FDF748FB3030C1B2FF
:102A90006846C1730A2152480078FDF73FFB303188
:102AA000684601744FA101A8FDF7A0FB01A8FDF73E
:102AB000CAFBC6B2324601A94C4804F0CDF97AE00F
:102AC000022243A1E01CFDF7E2FB002802D004F043
:102AD00033FAAAE700250DE0605D302802DB605D77
:102AE000392805DD102242A1404804F0B5F99CE7E1
:102AF000681CC5B2032DEFDB2078303864214143D8
:102B0000607830380A225043081880B20990A078C3
:102B100030280ADBA078392807DCA1786846808C49
:102B20000818303881B2099106E00A216846808C85
:102B3000FDF7F4FA81B209916846808C012803DB25
:102B40006846808CFF2805DD0D222EA1274804F061
:102B500083F96AE76846808C1C49A039087104F043
:102B6000F3FE0AF049FF1948A03801796846808CC5
:102B700081421DD1202101A8FDF72DFB0A2215A1BC
:102B800001A8FDF767FB0322214603A80230FDF7E9
:102B900061FB042213A104A80130FDF75BFB01A82F
:102BA000FDF751FBC6B2324601A9104804F054F9B2
:102BB00000200B49087000BF37E70000736C6565A3
:102BC0007074696D65000000B80400207004002076
:102BD0000D0A0000536C65657074696D6520000016
:102BE00000000020206F6B2100000000B0030020D7
:102BF000506172616D65746572206572726F7221C9
:102C00000000000057726F6E67206E756D6265720E
:102C100021000000F0B597B000257FA18148FDF7A5
:102C2000F1FA04460A3406227F492046FDF72FFBBD
:102C3000002803D004F094F917B0F0BDE41D1E2164
:102C400002A8FDF7C8FA0B2278A102A8FDF7EEFA58
:102C500020783F287BD0022277A1E01CFDF717FBEC
:102C6000002802D004F068F9E6E700260DE0A05D38
:102C7000302802DBA05D392805DD10226FA17448E1
:102C800004F0EAF8D8E7701CC6B2032EEFDB03228B
:102C9000214604A80330FDF7C9FA207830386421B2
:102CA00048434519607830380A2148434519A078CF
:102CB00030384019C5B21695169DFA2D05DD102243
:102CC0005EA1634804F0C8F8B6E757488438FDF7BA
:102CD000EDFAC7B21699C8B253498439FDF7F0FA34
:102CE00004F032FE0AF088FE4F488438FDF7DEFA21
:102CF000A8420AD04C4984393846FDF7E1FA10223F
:102D000054A1534804F0A8F813E057480078042170
:102D100008435549087055A102A8FDF767FA02A8B3
:102D2000FDF791FAC0B2024602A90190484804F0AA
:102D300093F83D488438FDF7B9FA002869D14A482C
:102D40000078042188434849087062E0FFE70222C6
:102D500039A1601CFDF79BFA002802D004F0ECF8C2
:102D60006AE70B2231A102A8FDF760FA2E488438E9
:102D7000FDF79CFAC7B264213846FDF7CFF9002869
:102D80001DD064213846FDF7C9F93030C5B2684618
:102D9000C57464213846FDF7C1F901910A210198F3
:102DA000FDF7BCF93030C5B2684605750A213846D2
:102DB000FDF7B4F93031CDB2684645751BE00A2104
:102DC0003846FDF7ABF9002810D00A213846FDF748
:102DD000A5F93030C5B26846C5740A213846FDF7FA
:102DE0009DF93031CDB26846057504E03846303083
:102DF000C5B26846C5741BA102A8FDF7F7F902A881
:102E0000FDF721FAC0B2024602A90190104804F071
:102E100023F800BF10E7000073706565646C696D8E
:102E200069740000B80400207004002053706565C8
:102E3000646C696D697420000D0A00005061726154
:102E40006D65746572206572726F722100000000FA
:102E5000B003002053706565646C696D697420650A
:102E600072726F7221000000EE000020206F6B2153
:102E70000000000070B532A13348FDF7C3F90446E5
:102E8000641D062231492046FDF701FA002802D0D0
:102E900004F066F870BDE41D20783F2809D10222B5
:102EA0002BA1601CFDF7F3F9002831D004F044F8A1
:102EB000F0E728A12448FDF7A5F900280FD0022249
:102EC00023A1A01CFDF7E3F9002802D004F034F898
:102ED000E0E701201D49A0398871012514E01EA1F9
:102EE0001948FDF78FF900280ED0022218A1E01C26
:102EF000FDF7CDF9002802D004F01EF8CAE7002043
:102F00001249A0398871002504F01EFD0AF074FDF5
:102F10000E48A0388079002808D009220FA1124855
:102F200003F09AFF01200AF0E8FA07E00A220FA155
:102F30000D4803F091FF00200AF0DFFA00BFA9E777
:102F400072656C6179000000B804002070040020F4
:102F50000D0A00006F6E00006F66660052656C61BE
:102F600079206F6E21000000B003002052656C6173
:102F700079206F666621000070B58CB000200B9040
:102F800045A14748FDF73EF90446A41D06224549E0
:102F90002046FDF77CF9002803D003F0E1FF0CB0D8
:102FA00070BDE41D202103A8FDF715F907223EA1FD
:102FB00003A8FDF73BF920783F2809D102223CA164
:102FC000601CFDF764F900282BD003F0B5FFE6E79D
:102FD0002078303881B20B916846808D03281DDC43
:102FE0006846808D002819DD6846808D401E314975
:102FF000085C2C49A03948726846808D401E2E49D5
:10300000085C2849A03988720A46917A507A0AF0F9
:1030100061FA04F099FC0AF0EFFC02E003F08CFF87
:10302000BDE7002509E01F48A038407A2149495DE5
:10303000884200D103E0681CC5B2032DF3DB00BF5A
:10304000032D08DA2846313069460870012203A8AA
:10305000FDF700F915E0174880781249A039487249
:103060001548807888720A46917A507A0AF032FAC6
:1030700004F06AFC332069460870012203A8FDF7BA
:10308000E9F803A8FDF7DFF8C6B2324603A90B48FA
:1030900003F0E2FE00BF82E773686F636B730000AA
:1030A000B80400207004002053686F636B73200025
:1030B0000D0A0000FEDF000801E00008B003002058
:1030C00010B50F222CA1304808F00AFB05F026FDB0
:1030D0000A222EA12C4808F003FB05F01FFD0D224B
:1030E0002DA1294808F0FCFA05F018FD09222EA1AF
:1030F000254808F0F5FA05F011FD0A222DA1224815
:1031000008F0EEFA05F00AFD09222DA11E4808F08C
:10311000E7FA05F003FD2DA12D48FDF773F800280F
:1031200006D10B222BA1184808F0DAFA05F0F6FCBC
:1031300014222BA1144808F0D3FA05F0EFFC092261
:103140002DA1114808F0CCFA05F0E8FC2DA120488B
:10315000FDF758F8002806D1142221A10A4808F0EA
:10316000BFFA05F0DBFC112229A1074808F0B8FAE4
:1031700005F0D4FC10BD000041542B435343533D94
:103180002247534D220D0A00280B002041542B43A7
:103190005343413F0D0A000041542B43504D533DD2
:1031A00022534D220D00000041542B43504D533FFC
:1031B0000D00000041542B434D47463D310D0000AA
:1031C00041542B434D47463F0D00000031000000A5
:1031D000B804002041542B434D47463D310D0A00B1
:1031E00041542B43534D503D31372C3235352C3023
:1031F0002C300D0A0000000041542B43534D503F2A
:103200000D00000031372C3235352C302C300000C9
:1032100041542B435343533D22383835392D312205
:103220000D0000007FB505460024002000900190AD
:1032300002900390FDF74CFB012025490870002007
:103240002449088000263AE023A12648FCF7DAFF4B
:103250000446002C2ED01E2008F022FBE27B69469B
:103260000A70217C68464170217B8170617BC1704E
:10327000627A0271A17A4171A27C8271E17CC17192
:10328000627D0272A17D4172217E8172617EC17276
:103290000C2108F0F9FE002800D112E0124968461E
:1032A00006F024FD11480068114908600A20114900
:1032B000087006E0642008F0F3FA701C86B2AE4293
:1032C000C2DB00BF00200249087004B070BD0000DE
:1032D00054010020560100202B514E49545A3A20E7
:1032E00000000000B8040020840000201800002026
:1032F0008C000020900000200FB4F0B589B0044687
:10330000002500260027002008901C220FA901A8F4
:10331000FCF748FF08F0C8FC0D48006803900D4812
:10332000006804900C48008881B26846C182002180
:10333000818201831A3002F05BFE1C2201A9204623
:10334000FCF730FF09B0F0BC08BC04B0184700001F
:10335000A0000020A40000202C010020F0B589B0BE
:10336000202270496846FCF71DFF00206E49087056
:103370006E48007841287DD1002008909FE06C487D
:103380000078002803D000200890694908700A20BE
:1033900008F086FA20216846FCF71DFF65A103C9E5
:1033A0000191009008983130C1B2684601720D2138
:1033B00041720A218172FCF746FF07B23A4669461C
:1033C0005F4808F08DF900205E49088001205E49C1
:1033D000087000215D4804F045FE5DA15B48FCF7E4
:1033E00011FF002800D167E05BA15848FCF70AFFF5
:1033F00004465AA1601CFCF705FF044658A1601C56
:10340000FCF700FF0546281B801EC6B21D2E00DB00
:1034100052E0A41C20215348FCF7DDFE3246214631
:103420005048FCF703FF504909784A014F495018AA
:103430002021FCF7D0FE4C4909784A014B4950182D
:1034400032464849FCF7AEFE204605F0E7FD09F09C
:103450008DFF642008F024FA20216846FCF7BBFEAB
:103460000D2243A16846FCF79DFE0898313069465D
:10347000087200E049E06846FCF7E5FE07B23A460C
:1034800069462F4808F02CF900202E4908800120B9
:103490002D49087000212D4804F0E4FD7D20C00076
:1034A00008F0FEF936480078002803D13548007846
:1034B000002800D007E000BF0898401C089008983A
:1034C000052800D25BE700BF7D20000108F0E8F985
:1034D00017480078002818D129480078002814D10E
:1034E00028480078002810D1274800785A280CD0A6
:1034F0000D480078022808D00D2224A1104808F0B9
:10350000EFF8FF20F53008F0CBF9002008490870EB
:10351000224908705A202249087000202149088059
:1035200009B0F0BD04E000083D010020D0030020F8
:103530000301002041542B434D47523D0000000041
:10354000280B00205601002054010020B804002060
:103550002B434D47523A0000220000002C2200006D
:10356000222C0000B0030020840100200E03002064
:1035700041542B434D47443D312C300D0A0000008F
:1035800002010020200100201E00002041542B4396
:103590004D47443D312C340D0A0000002801002025
:1035A000250100202601002010B5012000F096F82A
:1035B000002802D0012000F08BF810BD10B52020AB
:1035C00000F08CF8002802D0202000F081F8FF20C5
:1035D000013000F083F800281CD0FF20013000F0FB
:1035E00077F808F046FB002814D05A202D490870BF
:1035F0002D4800682D4908602D480078002809D022
:103600005A202C4908702C48007906214843801C18
:103610002A4908800120000300F060F8002816D035
:103620000120000300F054F82148007800280ED053
:1036300008F012FB00280AD01F48007A002806D0A4
:103640001D48007906214843801C1C490880012040
:10365000C00300F043F8002823D00120C00300F08D
:1036600037F808F013FB00281BD15A2014490870C2
:103670000020144908600E480078002806D00E4843
:10368000007906214843801C0C4908800020084925
:1036900008700D480078012803D1034800680B49E1
:1036A000086010BD360000201800002038000020FF
:1036B000FA0000201D000020D0030020FC000020A4
:1036C0001E00002020000020E00000202C00002030
:1036D0000149486170470000000401400146002094
:1036E0000022074B1B680B401A46054B5B690B42D7
:1036F00003D0002A01D0012000E000207047000024
:1037000000040140002120498279002A35D00A4670
:10371000126803689A430B461A600A4652680368A7
:103720009A430B465A60027951180A6803681A4393
:103730000A60154A926803689A43134B9A601A46C6
:10374000D26803689A43104BDA604279102A0CD190
:103750001A46926803681A430B4B9A601A46D2685D
:1037600003681A43084BDA600DE0074942795118A3
:103770000A6803681A430A6005E0027951180A686A
:1037800003689A430A607047000401400149C86019
:10379000704700000020024030B5044604250B208D
:1037A000000400F09DF80546042D17D10C4800696F
:1037B000022108430A490861084644610069402122
:1037C0000843074908610B20000400F089F805460A
:1037D000034800690221884301490861284630BD39
:1037E0000020024010B5044600F068F83420FFF7CE
:1037F000CDFF2046FFF7D0FF042801D0FF2010BDE9
:1038000000F01CF80020FAE704200B49C968C9073A
:10381000C90F01D001200EE00749C96810221142EA
:1038200001D0022007E00449C9680422114201D0F6
:10383000032000E004207047002002400348006994
:1038400080210843014908617047000000200240C0
:1038500078B506460C460425002000900B20000495
:1038600000F03EF80546042D24D1134800690121DB
:1038700008431149086134800B20000400F030F83F
:103880000546042D10D1B01C0090200C0099088032
:103890000B20000400F024F80546074800694008A2
:1038A00040000549086105E0034800694008400000
:1038B00001490861284678BD00200240054800699A
:1038C0008021084204D00448024948600348486007
:1038D000704700000020024023016745AB89EFCD0F
:1038E00010B503460424FFF78FFF044603E0FFF7FB
:1038F0008BFF04465B1E012C01D1002BF7D1002B5E
:1039000000D10524204610BD10B5002421E00A2274
:1039100012A1154807F0E4FE05F000F913A11648BE
:10392000FCF770FC002803D001201449087010BD7A
:1039300005212046FCF7F2FB002904D100F020F815
:10394000002800D1F3E77D20C00007F0A9FF601C2C
:10395000C4B2142CDBDB0020E9E7000041542B4308
:10396000474154543F0D0000280B00202B43474192
:1039700054543A2031000000B8040020E100002037
:1039800070B50025002400200F49087000BF17E023
:103990000A220EA1104807F0A3FE05F0BFF80FA100
:1039A0001248FCF72FFC002804D05A200649087062
:1039B000012070BD7D20000107F072FF601CC4B2C1
:1039C000022CE5DB0020F4E7E200002041542B4309
:1039D00050494E3F0D0A0000280B00202B43504950
:1039E0004E3A20524541445900000000B8040020DE
:1039F000F0B50A4600210023002400BF3DE0012568
:103A00008D402B4615681D402C469C4234D11579BB
:103A1000012D02D01579022D16D185684F0003269D
:103A2000BE40B543856055794E00B5408668354344
:103A30008560858801268E40B54385808588967986
:103A40008E40B6B23543858005684F000326BE40E0
:103A5000B543056015794E00B540066835430560ED
:103A6000C5684F000326BE40B543C560D5794E00FA
:103A7000B540C6683543C560491C1029BFD3F0BDA9
:103A8000F0B5002300244D07EE0E1546B5402B4639
:103A9000CD10AE0005462035AD594E07F70E0F2666
:103AA000BE40B543CE10B60007462037BD51CD10FD
:103AB000AE003D46AD591D432C46CD10AD003E46EF
:103AC0007451F0BD02460020138A0B4201D0012040
:103AD00000E0002070470185704781617047000059
:103AE0000FB430B58BB004461C220FA904A8FCF714
:103AF00059FB55A000680090002500200490059017
:103B00006946088400F000FE5048007800287DD007
:103B10004F4806F039FB06904D480838807C532802
:103B200003D1042105980843059049480B3006F05D
:103B30002BFB079046480838807F572803D108217F
:103B4000059808430590424817304249086042A151
:103B500040480068FCF756FB40490860084600787A
:103B60003C4A1278801AC1B23A48006806F05EFBFF
:103B700069464884488C3A49884202DD00206946FB
:103B8000488433481E303349086033A13148006807
:103B9000FCF738FB31490860084600782D4A127856
:103BA000801AC1B22A481E3006F01AFA6946888483
:103BB000888CFF216831884202DD002069468884B4
:103BC000022105980843059021480838C07941280A
:103BD00025D124480078002821D006221C49083924
:103BE00002A80230FCF7DEFA06221949253101A8A5
:103BF000FCF7D8FA09A9023101A806F077F80622E5
:103C000009A902311848FCF7CDFA00E011E0174885
:103C100000681749086050201649087009E0002123
:103C200068464184818402F01DFB09A8023002F03D
:103C3000DFF91C2204A92046FCF7B4FA0BB030BC13
:103C400008BC04B01847000011010000DB00002090
:103C500080030020B40000202E000000B8000020E7
:103C600098080000DA0000208400002018000020DE
:103C70008C000020900000207CB5054600245149AE
:103C800003C901910090002D7FD0012189034E4886
:103C9000FFF721FF01210920C006FFF71EFF1E20AC
:103CA00007F0FEFD012007F065FC0A2007F0F8FD93
:103CB000012189034448FFF710FFFF20800007F02F
:103CC000EFFD012189034048FFF705FF7D2000013A
:103CD00007F0E6FD0F24002452E0FCF7BFFD0028AA
:103CE00040D06420FFF79EFA0F2238A13B4807F02E
:103CF000F7FC04F013FF0020384908734B21C90179
:103D0000364807F01BFD0A2007F0CAFD0A2234A13D
:103D1000324807F0E5FC04F001FF052233A12F48EB
:103D200007F0DEFC04F0FAFE182232A12B4807F05F
:103D3000D7FC04F0F3FE0B2235A1284807F0D0FC95
:103D4000FF20F53004F03CFF04F074FE002801D1A0
:103D500004F070FE00F0D0FA002801D100F0CCFA97
:103D600001207CBD00201D490873A0006A4611583F
:103D70001A4807F0E3FC0A2007F092FD601CC4B269
:103D8000022CAADB0020ECE7FFE7012189030E48A3
:103D9000FFF7A3FE1920400107F082FD01218903EE
:103DA0000948FFF798FE002007F0E4FB7D200001A2
:103DB00007F076FD01210920C006FFF78CFE0120E7
:103DC000CFE70000C4DF00080004004841542B493D
:103DD00050523D3936303026570D0A00280B00204E
:103DE000415453303D3026770D0A00004154490DAF
:103DF0000A00000041542B514346473D2252492FAF
:103E0000486F7070696E67222C310D0A0000000047
:103E100041542B514E49545A3D310D0030B587B0B5
:103E20000446022006901422164901A8FCF7BAF9AC
:103E30000A2C02D13220069003E0052C01D131205A
:103E4000069000206946C873012206A901A8FCF764
:103E500001FA02220CA101A8FCF7FCF901A8FCF769
:103E6000F2F905B22A4601A9084807F039FCFF20FB
:103E7000F53004F0A5FE002802D1012007B030BDC6
:103E80000020FBE7B0DE00080D0A0000280B002030
:103E900010B500BF0020FFF7EFFE7D20400107F0C6
:103EA000FFFC0120FFF7E8FE0028F3D002F06CF8D9
:103EB0000A2007F0F5FCFCF7FDFC10BDF0B591B051
:103EC0000F20109000207549087000BF1098401E08
:103ED000C0B2109072A17348FCF794F9002800D08A
:103EE00004E000F011FC10980028EFD100BF1098FA
:103EF000002804D16C4908706C490870CAE06CA1B4
:103F00006848FCF77FF907466AA16648FCF77AF92A
:103F10000F90002FF2D00F980028EFD00F98C01B01
:103F2000C0B20D900D985528E8D20D98401DC1B231
:103F30003846FCF763FC0028E0D034225E4968462E
:103F4000FCF730F934215C48FCF745F93E46002582
:103F500000BF5AA13046FCF755F90E900E98801B11
:103F6000C4B2012D0AD1062C07DB0A2C05DC06227F
:103F700031465148FCF716F974E07BE0022D0AD176
:103F80003078412806D15A204D49087041204A49CD
:103F9000C87167E06EE0032D09D1092C06DB2246CB
:103FA000314645480830FCF7FDF85BE062E0042D3F
:103FB0000AD130784E2802D03078532803D1307897
:103FC0003D4988744EE055E0052D09D10A2C06DBE9
:103FD0002246314638481330FCF7E4F842E049E025
:103FE000062D0AD13078452802D03078572803D1E1
:103FF00030783149887735E03CE0072D0ED1002C30
:104000000BDD092C09DA062C00DD06242246314698
:1040100029481F30FCF7C6F824E02BE0082D0ED10C
:10402000032C0BDD092C09DA062C00DD06242246C0
:10403000314621482630FCF7B5F813E01AE0092D87
:1040400010D1032C0DDB062C0BDC224631461A481E
:104050002D30FCF7A7F85A20194908701349087049
:1040600000E007E00E98461C681CC5B2092D00DD73
:1040700000E06EE700BF092D07DC00200B49087047
:10408000342269460C48FCF78DF8552205490D4845
:10409000FCF788F8109811B0F0BD0000ED0000208A
:1040A0002C412C00B80600206C010020DA00002012
:1040B000240000002A000000780300202C000000EB
:1040C000DB0000200D07002070B504460025002607
:1040D00000BFFFF7F3FE084800785A2801D10120FD
:1040E00070BD681CC5B2A54201DB0020F8E7AF2017
:1040F000800007F0D5FBECE7DA00002070B5002463
:1041000007F0B6FB0A2229A12B4807F0E9FA04F0D0
:1041100005FDFA2004F054FD00202849087028A16C
:104120002948FCF76FF8002801D0002070BD002559
:1041300026A12548FCF766F8002834D025A122489E
:10414000FCF760F800282ED023A11F48FCF75AF88E
:10415000002802D0FCF7BCFB022524A11A48FCF77A
:1041600051F80446002C1ED02548FCF76CF8064692
:104170003246234920461530FCF789F8002811D132
:104180001F483030FCF75FF8064632461C49303194
:1041900020462730FCF77BF8002803D1FCF798FB7A
:1041A000012500E003252846C0E7000041542B51BB
:1041B00049535441540D0000280B0020EC0000200E
:1041C0004552524F52000000B8040020535441544D
:1041D000453A00004F4B00002B5149535441544580
:1041E0003A20322C2022544350222C002B51495388
:1041F000544154453A20312C2022554450222C0061
:10420000F0030020F0B58DB0002600270025002423
:104210001AE000F03FF8A10001AA5050A00001A947
:104220000858002801D0A0000F58A00001A9085884
:104230001749884202D2A00001A90E58A00001A986
:1042400008584519601CC4B20C2CE2DB00240FE0B6
:10425000A00001A90858B84201D2A0000F58A00040
:1042600001A90858B04201D9A0000E58601CC4B280
:104270000C2CEDDBB8192D1AFF204B304543C32120
:104280002846FBF735FF0546A8B20DB0F0BD00008B
:10429000FF0F000008B51748FCF716FA68460088BB
:1042A000401C81B2009168460088401E81B2009196
:1042B00000BF04210F48FCF7DAF90028F9D068465E
:1042C0000088401C81B2009168460088401E81B27F
:1042D00000910848FCF7FDF968460088401C81B24F
:1042E000009168460088401E81B200910148FCF7A9
:1042F000BAF908BD0024014070B5002400255A20F9
:104300001549087000BF20E00E2214A1174807F0DD
:10431000E7F9322007F0C4FA0E2215A1134807F07E
:10432000DFF900250DE016480078002804D00020B1
:1043300009490870012070BD052007F0B1FA681C1A
:10434000C5B2C82DEFDB601CC4B2032CDCDB00203F
:104350000149087000BFEEE76D010020245044546D
:10436000494E464F2C2A36320D0A0000380B0020E9
:10437000245043415330362C302A31420D0A00007C
:10438000DC00002015E0012149030A48FFF7A5FBE6
:10439000002400E0641C08488442FBD30121490347
:1043A0000448FFF798FB002400E0641C02488442A4
:1043B000FBD3E8E700040048FFFF040010B54021EC
:1043C0000B48FFF788FB07F08FFE80210848FFF7B6
:1043D00082FB022007F07FFA40210548FFF77DFBB2
:1043E000022007F078FA40210148FFF774FB10BD66
:1043F0000014004810B540210B48FFF76CFB07F094
:1044000073FE80210848FFF768FB022007F063FA7B
:1044100040210548FFF761FB022007F05CFA4021CC
:104420000148FFF758FB10BD0014004870B5054661
:10443000002407F045FE002619E040211148FFF74F
:104440004AFB022007F047FA40210E48FFF745FBE0
:104450006006040E80210B48FFF734FB002801D0D2
:10446000601CC4B2012007F036FA701CC6B2082ED8
:10447000E3DB002D02D1FFF7BDFF01E0FFF79EFF58
:10448000204670BD0014004870B5044607F02CFEAD
:1044900040211748FFF71FFB002525E08020204022
:1044A000802808D180211248FFF717FB601CC4B296
:1044B000601EC4B203E080210D48FFF70CFB6006CC
:1044C000040E022007F007FA40210948FFF705FB18
:1044D000022007F000FA40210548FFF7FCFA02200D
:1044E00007F0F9F9681CC5B2082DD7DB70BD0000D4
:1044F0000014004810B507F0F7FD80210A48FFF7C7
:10450000ECFA40210848FFF7E8FA042007F0E3F945
:1045100080210548FFF7DFFA042007F0DCF940218D
:104520000148FFF7D8FA10BD0014004810B507F095
:10453000DBFD40210A48FFF7CEFA80210848FFF74B
:10454000CAFA042007F0C7F940210548FFF7C5FA69
:1045500080210348FFF7C1FA042007F0BCF910BD21
:104560000014004810B5002407F0AAFD802111486E
:10457000FFF7B3FA012007F0AEF940210D48FFF72D
:10458000ACFA012007F0A7F907E0601CC4B2FA2CCE
:1045900003DDFFF7CBFF012010BD80210548FFF7A9
:1045A00091FA0028F1D140210248FFF794FA002047
:1045B000F2E700000014004800B585B00121072093
:1045C000400401F075FB3D480390012168460174E9
:1045D00000218174C1740321417403A90920C0061C
:1045E000FFF706FA112000020390002168460174CB
:1045F0000121C1740321417403A90920C006FFF7FA
:10460000F7F903200002039001216846017400219C
:104610008174C1740321417403A92948FFF7E8F9A3
:104620000720000303900121684601740021817472
:10463000C1740321417403A92248FFF7D9F901206D
:10464000C0030390002168460174C17403214174C2
:1046500003A91C48FFF7CCF90121084601F058FBDB
:104660000C21002002F086F90120000301900021B6
:1046700068460172102141720121817201A8FFF781
:1046800041F80821002002F075F9FF200130019067
:10469000002168460172082141720121817201A83E
:1046A000FFF730F8072168460170022141700121AF
:1046B000817001F009FA05B000BD00001308000088
:1046C000000800480004004801480249086070479B
:1046D000CCCC00000030004010B500F015F810BD43
:1046E00070B505460C46074800F022F8284600F051
:1046F00013F8204600F016F800F006F8FFF7E4FF84
:1047000070BD00005555000001480249086070471F
:10471000AAAA00000030004001494860704700002C
:1047200000300040014988607047000000300040C0
:10473000014908607047000000300040F0B5B9B092
:104740001822DEA133A8FBF72DFD00202E90029049
:104750001122E049E04806F0C3FF0222DFA1DE4853
:1047600006F0BEFF1B22DEA1DB4806F0B9FF1122D6
:10477000E2A1D94806F0B4FF1B22E5A1D64806F015
:10478000AFFF1C22E9A1D44806F0AAFF01F048FAC5
:104790001B22EEA1D04806F0A3FF2C22F2A1CE48A6
:1047A00006F09EFF0120FC49087000241DE06420F3
:1047B00007F076F80122F9A1C74806F091FF2822F8
:1047C000F749F848FBF7EEFCF7A1F648FBF71AFDAE
:1047D000002808D05A20F74908702C22F6A1BE48BC
:1047E00006F07EFF03E0601CC4B2282CDFDB00BFB4
:1047F000FD4800680290F5E3FFF786FFFA4801687C
:104800000298081AFF212D31884205D90020F74966
:104810000870E8490870F7E3FF228132E049E14877
:10482000FBF7C0FCE0A1DF48FBF7ECFC002804D05C
:104830000120EF4908702E90E7E3ED480078012849
:10484000FAD1ECA1D748FBF7DDFC002805D1EAA19D
:10485000D448FBF7D7FC0028EED0C82007F020F89A
:10486000C822CF49CF48FBF79DFCE4A1CD48FBF718
:10487000C9FC00281FD0C822C949E248FBF792FCB6
:10488000FCF7F8FFA02103A8FBF7A5FC03A808F09C
:1048900047FE0A2007F004F803A8FBF7D4FC07B290
:1048A0003A4603A98C4806F01BFF02228BA18A48D6
:1048B00006F016FF96E0D4A1BA48FBF7A3FC002847
:1048C00015D0A02103A8FBF786FC03A808F028FE5A
:1048D00003A8FBF7B8FC07B23A4603A97E4806F0E6
:1048E000FFFE02227DA17C4806F0FAFE7AE0C8A114
:1048F000AC48FBF787FC002812D006222BA9C5483C
:1049000007F08EFB0B222BA90131734806F0E8FE5D
:10491000022272A1704806F0E3FE01202E9061E0B1
:10492000BDA1A048FBF76EFC00285BD0B1A19D485B
:10493000FBF768FC0546143500240AE0285D392899
:1049400002DC285D302802DA01202E9003E0601C92
:10495000C4B20B2CF2DB00BF0B2C07DA0F22B0A184
:104960005D4806F0BDFE01202E903BE00B2229465B
:104970002BA80130FBF716FC302028A9087300246F
:1049800009E0A44A111962002BABD018022205F0ED
:1049900075FB601CC4B2062CF3DB002407E09D4AC3
:1049A000115D2BAA101907F02BFB601CC4B2062C5A
:1049B000F5DB06222BA99748FBF7F4FB02F0C4FFB6
:1049C00006222BA9934807F02BFB0B222BA90131C0
:1049D000414806F085FE022240A13F4806F080FED5
:1049E00001202E9092A16F48FBF70CFC002844D0C8
:1049F0008FA16C48FBF706FC851C28783F2810D156
:104A000084483838FBF71FFC07B23A4681493839E9
:104A1000314806F065FE022230A12F4806F060FE04
:104A200028E06048FBF70FFCC01EC4B20F2C01DC6D
:104A3000072C07DA0F227AA1274806F051FE012041
:104A40002E9017E0002605E0002172483838815585
:104A5000701CC6B2102EF7DB22465249C91C6D48A5
:104A60003838FBF79FFB02F06FFF0C2271A11A4848
:104A700006F036FE01202E908FE372A14948FBF725
:104A8000C1FB002817D06FA14648FBF7BBFB851C74
:104A900028783F2810D15F480838FBF7D4FB082856
:104AA0000BD85C480838FBF7CEFB07B23A465949A9
:104AB00008390948C8E00FE1D4E0C8E02A2C6F6B40
:104AC00023000000000000000000000000000000C3
:104AD00000000000ECDF0008380B00200D0A000089
:104AE00075647020736574757020636F6D6D616E91
:104AF0006420737570706F72740D0A007564702095
:104B0000646E7320737570706F72740D0A0000000C
:104B100072696E6720706F7765722077616B65755B
:104B20007020737570706F72740D0A004C6F616441
:104B3000696E672075736572277320736574746975
:104B40006E67732E2E2E0D0A0000000075736572BD
:104B50002073657474696E677320696E6974696126
:104B60006C697A65640D0A0050726573732027259D
:104B70002525252525252525252720746F20656ECB
:104B800074657220746865207365747570206D6F2C
:104B900064650D0A000000000C0100202E000000DA
:104BA00078090020F807002025252525252525251D
:104BB000252500004C0100200D0A456E7465722009
:104BC00073797374656D20736574206D6F64652CE3
:104BD000706C6561736520736574207468656D2100
:104BE00021210D0A0000000018000020F100002023
:104BF00002010020250000003C0000003C53455409
:104C00004D2A0000B80400203C435843533E0000A6
:104C100049440000280400202C32442C00000000ED
:104C200057726F6E67206E756D626572210D0A0096
:104C300053520000495020736574206F6B210D0A98
:104C4000000000005054000006F04AFD04E0082275
:104C5000F749F84806F044FD0222F7A1F54806F0AE
:104C60003FFD36E0F548FBF7EEFAC01EC6B2002461
:104C70000AE0285D392802DC285D302802DA0120AC
:104C80002E9003E0601CC4B2B442F2DB00BF042CDF
:104C900001DB052C07DD0F22E949E64806F020FD7F
:104CA00001202E9015E0002404E00021E048015589
:104CB000601CC4B2052CF8DB2246E049C91CDC4864
:104CC000FBF7B4FA02F040FE0E22DEA1D94806F04E
:104CD00007FD01202E90CFE6DEA1D848FBF792FA1F
:104CE000002843D0DBA1D548FBF78CFA05460C35EC
:104CF00028783F2810D1CE48503840785A2805D01F
:104D00001322D8A1CB4806F0EBFC2CE01222DAA14A
:104D1000C84806F0E5FC26E02878352807D16878F1
:104D2000412804D15A20C2495039487009E02878F6
:104D3000302806D16878302803D10020BC4950398A
:104D4000487002F001FEBA48503840785A2805D021
:104D50001F22CEA1B74806F0C3FC04E01B22CCA161
:104D6000B44806F0BDFC01202E9085E6CFA1B348E3
:104D7000FBF748FA00287DD0CCA1B048FBF742FAF7
:104D8000851C28783F283ED1A9484038FBF78EFA89
:104D9000C749884204D9A6494039C548FBF790FA6B
:104DA000A3484038FBF782FA07466421FBF7A0F9D5
:104DB0003030C1B228A801779D484038FBF776FA19
:104DC00064210190FBF794F90F460A213846FBF75E
:104DD0008FF90146303128A8417795484038FBF7D4
:104DE00065FA07460A21FBF783F9303128A8817755
:104DF00003222FA98F4806F073FC02228EA18D4852
:104E000006F06EFC5DE08D48FBF71DFAC01EC6B2D1
:104E100000240FE0285D392802DC285D302807DAFD
:104E20000F228749834806F05BFC01202E9003E0A7
:104E3000601CC4B2B442EDDB00BF7D4940390020A4
:104E4000FBF73EFA00241AE079484038FBF72EFAC7
:104E50000A214843074676494039FBF731FA74483E
:104E60004038FBF723FA295D30394718704940393B
:104E7000384600E028E0FBF723FA601CC4B2032C9C
:104E8000E2DB6B484038FBF711FA0A2804D2684984
:104E900040390A20FBF714FA65484038FBF706FA58
:104EA000FF212D31884205D961494039FF202D303D
:104EB000FBF706FA02F048FD0C227EA15D4806F0E1
:104EC0000FFC01202E90D7E57EA15C48FBF79AF9F4
:104ED000002814D07BA15948FBF794F9C51C287809
:104EE0003F28F0D111227849524806F0F9FB0222FE
:104EF00051A1504806F0F4FB01202E90BCE573A1AF
:104F00004E48FBF77FF900280FD070A14B48FBF704
:104F100079F9C51C28783F2802D100F081FE01E014
:104F200000F07EFE01202E90A6E569A14348FBF724
:104F300069F900283AD066A14048FBF763F9851C5F
:104F400028783F280DD1202239492039394806F0E8
:104F5000C7FB022238A1374806F0C2FB01202E9081
:104F60008AE53648FBF76FF9C01EC4B21F2C01DC7E
:104F7000032C07DA0F2232492E4806F0B1FB01203C
:104F80002E9079E520212A482038FBF724F9224683
:104F90002A49C91C26482038FBF748F902F0D4FCFE
:104FA0000C224CA1234806F09BFB65E54DA123484C
:104FB000FBF728F9002839D04AA12048FBF722F94D
:104FC000851C28783F280ED1202219491031194814
:104FD00006F086FB022218A1164806F081FB01208C
:104FE0002E9049E5FEE31548FBF72DF9C01EC4B22B
:104FF0001F2C01DC032C09DA0F2211490D4806F0A1
:105000006FFB01202E9037E5EDE3EDE3202108480A
:105010001030FBF7E0F822460849C91C044810305C
:10502000FBF704F902F090FC0C225DE061E0000067
:1050300020040020380B00200D0A0000F807002093
:10504000204C0008504F525420736574206F6B2120
:105050000D0A00004558434C55534956455F495089
:10506000000000004E4F54204558434C55534956BC
:10507000455F4950210D0A004558434C5553495648
:10508000455F4950212121200D0A00004E4F542038
:105090004558434C55534956455F4950206D6F6400
:1050A0006520736574206F6B210D0A004854000061
:1050B000E7030000485420736574206F6B210D0ACC
:1050C0000000000056455200ECDF00084154460045
:1050D00041500000415020736574206F6B210D0A10
:1050E00000000000554E0000F3A1F74806F0F8FA62
:1050F000A7E3F6A1F648FBF785F8002837D0F3A11F
:10510000F348FBF77FF8851C28783F280CD1202234
:10511000F049ED4806F0E4FA0222EFA1EA4806F071
:10512000DFFA01202E908CE3E948FBF78CF8C01ED3
:10513000C4B21F2C01DC032C07DA0F22E749E24836
:1051400006F0CEFA01202E907BE32021E148FBF708
:1051500042F82246DE49C91CDE48FBF767F802F038
:10516000F3FB0C22DEA1D84806F0BAFA69E3E0A10D
:10517000D748FBF747F8002810D0DDA1D448FBF74B
:1051800041F8851C28783F2802D101202E9058E351
:105190000B22D8A1CC4806F0A3FA52E3D8A1CC4800
:1051A000FBF730F8002817D0D5A1C948FBF72AF83B
:1051B000851C0020D3490870D34908704120C54997
:1051C0008039087002F0C0FB1522D0A1BE4806F05D
:1051D00087FA01202E904AE3D2A1BD48FBF712F8CE
:1051E00000280CD04120BB498039087002F0ACFB8C
:1051F00008F002FC0020FEF73FFD00BFFEE7CAA159
:10520000B348FAF7FFFF002802D001202E9018E3E0
:10521000C6A1AF48FAF7F6FF002877D001202E90FC
:10522000C3A1AB48FAF7EEFF002857D0C0A1A848A9
:10523000FAF7E8FF05462846FBF705F8BE49098856
:10524000884293D100243EE0BB480088072838D02C
:10525000B9490988CA1F63019E4928315918881C19
:10526000E91DFBF714F800282BD162019949283178
:1052700050182021FAF7AFFF6521620195482830C8
:10528000815402F061FB610192482830405C65283E
:1052900005D13B22A9A18C4806F022FA10E0620158
:1052A0008C49283150182021FAF795FF65216201B9
:1052B0008848283081543522AFA1834806F010FA7F
:1052C00003E0601CC4B2022CBEDB00BF022C9EDBDC
:1052D0002622B7A17C4806F003FAB2E2BEA17C48C0
:1052E000FAF790FF002892D0BBA17948FAF78AFF1D
:1052F00005462846FAF7A7FF8F490988884286D1D4
:105300008D48008821284FDA002442E052E06101F4
:1053100070482830405C662839D0002609E0281DF6
:10532000815D62016B4828301218B01C1154701C4A
:10533000C6B281480088001FB042F0DC7E48007889
:10534000001FC1B262016348283010184170662105
:10535000620160482830815402F0F6FA76490988E3
:105360000A1F63015B4928315918881C291DFAF767
:105370008EFF002805D1342299A1534806F0B0F9D8
:1053800004E02822A4A1504806F0AAF903E0601C1A
:10539000C4B2022CBBDB00BF022C9EDB1E22A8A1E4
:1053A000494806F09DF94CE228229BA1464806F0A8
:1053B00097F946E2AAA14648FAF724FF002849D007
:1053C000A7A14348FAF71EFF051D28783F2814D1EE
:1053D000404880388078012807D003280BD10B2261
:1053E000A1A1394806F07CF906E00B22A1A13648BC
:1053F00006F076F900E000BF29E0A1A13448FAF7F1
:1054000001FF002805D001203249803988705A24D4
:105410000CE09EA12E48FAF7F5FE002805D05A248C
:1054200003202C498039887000E0A5245A2C07D12C
:1054300002F08AFA0E2298A1234806F051F906E0FC
:10544000A52C04D10E2298A11F4806F049F901208D
:105450002E90F6E198A11E48FAF7D4FE002828D035
:1054600095A11B48FAF7CEFEC51D28783F2810D11C
:10547000184880384079002805D0102290A11248A1
:1054800006F02EF94CE1112292A10F4806F028F9FE
:1054900046E195A12846FAF7B5FE00280AD001207A
:1054A0000C4980394871112290A1074806F018F97B
:1054B00034E138E124E10000554E20736574206F1B
:1054C0006B210D0A00000000380B0020505700002F
:1054D000F8070020500400200D0A0000204C0008AE
:1054E000505720736574206F6B210D0A0000000077
:1054F0004F5400004F5420736574206F6B0D0A00E9
:1055000052430000F10000204C010020456E7465FC
:1055100072206170706C69636174696F6E21210D16
:105520000A00000052535400435351004E554D00A1
:105530002544454C4E554D005A01002054686520C5
:105540005370656369666965642052656769737441
:105550006572204E756D62657220686173206265A8
:10556000656E2064656C657465205375636365734F
:105570007366756C210D0A0054686520537065636D
:105580006966696564205265676973746572204E47
:10559000756D62657220686173206265656E206456
:1055A000656C657465204661696C210D0A00000018
:1055B0005468652053706563696669656420526547
:1055C000676973746572204E756D626572204572ED
:1055D000726F72210D0A0000254E554D000000002B
:1055E00054686520537065636966696564204E750B
:1055F0006D62657220686173206265656E207265F8
:105600006769737465642053756363657373667546
:105610006C210D0A0000000054686520537065631A
:105620006966696564204E756D6265722072656792
:105630006973746564204661696C6564210D0A00B4
:10564000546865205265676973746572204E756D84
:105650006265722069732046756C6C210D0A00002A
:105660004D4F444500000000616C6C6F6E6C696EBC
:10567000650D0A00656C6F77706F7765720D0A00B3
:10568000656C6F77706F776572000000616C6C6F8E
:105690006E6C696E65000000536574206D6F646503
:1056A000206F6B210D0A000057726F6E67206D6FBF
:1056B000646520210D0A00004155544F534D53009D
:1056C0004155544F534D53206973206F6E210D0A7D
:1056D000000000004155544F534D53206973206F13
:1056E0006666210D0A0000006F6E0000536574208D
:1056F0004155544F534D53206F6B210D0A0000004C
:1057000060A12846FAF77EFD002807D000205E49F8
:10571000487114225DA1634805F0E2FF02F014F91C
:1057200001202E908DE060A16048FAF76BFD002803
:1057300039D05DA15D48FAF765FDC51C28783F2882
:105740000FD15148007A002805D0112258A15548A0
:1057500005F0C6FF24E012225AA1524805F0C0FF0E
:105760001EE05DA12846FAF74DFD002808D0012073
:105770004549087211224EA14A4805F0B1FF0DE0DB
:1057800040A12846FAF73EFD002807D000203E49F8
:10579000087212224BA1434805F0A2FF02F0D4F890
:1057A00001202E904DE04DA14048FAF72BFD002836
:1057B00047D04AA13D48FAF725FD05460B35287824
:1057C0003F2812D108223049A031364805F088FF21
:1057D000FF20F53006F064F802223EA1314805F0C2
:1057E0007FFF2CE03DE042E02DE000240FE0285D4B
:1057F000392802DC285D302807DA0F223A49294887
:1058000005F06EFF01202E9003E0601CC4B2062C50
:10581000EDDB00BF062C12D106221B49A03133A8B4
:10582000FAF7C0FC062229461748A030FAF7FEFC1A
:1058300002F08AF815222DA11A4805F051FF012027
:105840002E9001202E902E98002808D0FF21813123
:105850002C48FAF7C0FC00202B4908802E90FEF758
:1058600053FF2A4800785A2801D1FEF7C5FF00BF30
:10587000002027490870152226A10A4805F030FFAC
:1058800039B0F0BD6F666600D003002043616E63DF
:10589000656C204155544F534D53206F6B210D0AB9
:1058A00000000000380B002041434300F8070020AF
:1058B000414343204D4F4445206973206F6E210DB5
:1058C0000A000000414343204D4F444520697320A6
:1058D0006F6666210D0A00006F6E0000534554503C
:1058E000415353574F524400204C000853657420D5
:1058F00053455450415353574F5244206F6B210D21
:105900000A000000780900205A0100204C01002004
:105910000C010020202053797374656D207374612D
:105920007274206E6F77210D0A00000010B50446D6
:105930002046E117890F091889108900611A11D1D1
:105940006421FAF7EBFB00290AD1FF2191312046AF
:10595000FAF7E4FB002901D1012010BD0020FCE78B
:105960000120FAE70020F8E708B56946202000F09A
:1059700053F868460178F0200140009168460078AD
:105980000011030003F0C8FA0A1A06080A0C0E10E8
:105990001215171A012008BD0A20FCE71920FAE7A2
:1059A0003220F8E76420F6E7C820F4E7FF209130C2
:1059B000F1E70348EFE715208001ECE70020EAE774
:1059C00054060000FEB50446FFF7CEFF0290029891
:1059D000FAF7FAFC01902046FAF7F6FC0749009026
:1059E000FAF7B4FC07460199FAF773FC0646FAF792
:1059F000F2FCC5B2284600F02FF8FEBD00007A4444
:105A000070B50546ECB26406640E7F2C00DD3224CE
:105A1000204600F030F870BD70B505460C460026F3
:105A2000FEF768FD3220FEF72FFDFEF79BFD2846AE
:105A3000FEF72AFDFEF796FDFEF75CFD3320FEF72C
:105A400023FDFEF78FFD0020FEF7F0FC0646FEF773
:105A50006DFD2670012070BD10B504467F2C01DD60
:105A6000002010BD2146332000F014F8002800D19A
:105A7000F7E70120F5E710B504467F2C01DD002093
:105A800010BD2146322000F005F8002800D1F7E7CC
:105A90000120F5E770B505460C46FEF72BFD3220D8
:105AA000FEF7F2FCFEF75EFD2846FEF7EDFCFEF782
:105AB00059FD2046FEF7E8FCFEF754FDFEF736FDE3
:105AC000012070BD7047000000218278002A27D095
:105AD000184A03231B02D21803789B109B00D1584D
